:020000040800F2
:10000000280900202D070008890700088907000833
:100010008907000889070008890700080000000018
:100020000000000000000000000000008907000838
:10003000890700080000000089070008FD14000877
:100040008907000889070008890700088907000850
:100050008907000889070008890700088907000840
:10006000890700088907000889070008AD0600080D
:100070008907000889070008890700088907000820
:100080008907000889070008890700088907000810
:100090008907000889070008890700088907000800
:1000A00089070008890700088907000889070008F0
:1000B00089070008890700088907000889070008E0
:1000C00089070008890700088907000889070008D0
:1000D00089070008890700088907000889070008C0
:1000E00089070008890700088907000889070008B0
:1000F000890700088907000889070008A106000889
:10010000890700088907000889070008B906000860
:10011000890700088907000889070008890700087F
:10012000890700088907000889070008890700086F
:10013000890700088907000889070008890700085F
:10014000890700088907000889070008890700084F
:10015000890700088907000889070008890700083F
:10016000890700088907000889070008890700082F
:10017000890700088907000889070008890700081F
:10018000890700088907000880B485B000AF78604F
:10019000104B1A687B6802FB03F3FB600E4B1A6876
:1001A0000E4B9A4204D00C4B1A680D4B9A4205D163
:1001B000084B1B68FA68D31AFB60FFE700BFFB68B7
:1001C0005A1EFA60002BFAD11437BD465DF8047B45
:1001D000704700BF20010020340000200095BA0ABB
:1001E00000E1F50580B582B000AF02460B46FA711A
:1001F000BB7101F0F3F900F05BF84AF6C870FFF745
:10020000C3FF2A4BBA79DA70284BFA791A71274B57
:1002100000225A71254B00229A71244B00225A70F9
:10022000BB79012B06D9214B5B7843F00803DAB286
:100230001E4B5A70032000F0CFF841F29410FFF7E4
:10024000A3FF032000F0C8F841F29410FFF79CFFD1
:10025000032000F0C1F841F29410FFF795FF02204F
:1002600000F0BAF86420FFF78FFF104B5B7843F083
:100270002003DBB2184600F07BF80C4B04221A7006
:1002800000F07EF900F06AF8084B02229A70074BE2
:100290009B7843F00403DBB2184600F069F841F2A2
:1002A0009410FFF771FF0837BD4680BD7400002031
:1002B00080B582B002AF002300930023019326484B
:1002C00010210122002301F047FC002300930023AA
:1002D0000193214820210122002301F03DFC00234D
:1002E0000093002301931C4801210122002301F007
:1002F00033FC0023009300230193174802210122BD
:10030000002301F029FC00230093002301931248ED
:1003100004210122002301F01FFC0023009300238D
:1003200001930D4808210122002301F015FC0A4B1E
:1003300010225A83084B20225A83074B01225A83EA
:10034000054B02225A83044B04225A83024B082293
:100350005A83BD4680BD00BF0010024080B500AF8B
:10036000012000F005F840F6B830FFF70DFF80BD22
:1003700080B582B000AF0346FB71094B10225A834F
:10038000FB791B09DBB2184600F026F8FB7903F075
:100390000F03DBB2184600F01FF80837BD4680BDDA
:1003A0000010024080B582B000AF0346FB71094BDC
:1003B00010221A83FB791B09DBB2184600F00CF8F7
:1003C000FB7903F00F03DBB2184600F005F808379D
:1003D000BD4680BD0010024080B582B000AF03462C
:1003E000FB71FB7903F00803002B03D01C4B0822A0
:1003F0001A8302E01A4B08225A83FB7903F00403A4
:10040000002B03D0164B04221A8302E0144B042263
:100410005A83FB7903F00203002B03D0104B022216
:100420001A8302E00E4B02225A83FB7903F0010388
:10043000002B03D00A4B01221A8302E0084B012251
:100440005A83074B20221A831420FFF79DFE044B8A
:1004500020225A831420FFF797FE0837BD4680BD3F
:100460000010024080B584B000AF02460B46FA711E
:10047000BB71134A07F10C0310681860114BDB784D
:10048000BA799A4201D30023BB710E4BFA795A71A3
:100490000C4BBA799A71BB7907F11002134413F827
:1004A000042CFB791344DBB2DBB263F07F03DBB2D5
:1004B000DBB21846FFF75CFF1037BD4680BD00BFBA
:1004C000442300087400002080B582B000AF0B46C2
:1004D0003A600246FA71BB71FA79BB791046194647
:1004E000FFF7C0FF42E0254B5A79244B1B799A4213
:1004F00010D3224B00225A71204B9B790133DAB280
:100500001E4B9A711D4B5A791C4B9B79104619460C
:10051000FFF7A8FF3B681B780A2B0ED1174B9B797E
:100520000133DAB2154B9A71144B5A79134B9B79FC
:1005300010461946FFF796FF15E03B681B780D2B18
:1005400006D10E4B9B7900201946FFF78BFF0AE07E
:100550003B681B781846FFF725FF084B5B79013392
:10056000DAB2064B5A713B6801333B603B681B783B
:10057000002BB8D10837BD4680BD00BF74000020F5
:1005800080B500AF074B1B7843F00403DAB2054B8C
:100590001A70044B1B7843F00803DBB21846FFF7D0
:1005A000E7FE80BD7400002080B500AF374B1A68AD
:1005B000374B1B681046194601F028FA0346002BFA
:1005C00062D0344B1B68002B4AD000BF2F4B1B68F6
:1005D000184601F003FA0346002BF7D12B4B1A689B
:1005E0002B4B1B681046194601F04CFA2A4B1B682E
:1005F0001A462A4B9A60274B1A684FF6FF739A42A5
:1006000028BF1A46254B1A61204B1B681846234900
:1006100001F072F91D4B1B681846012101F0C2F967
:100620001D4B1A681B4B19684FF6FF73994238BF70
:100630000B465B001A44184B1A60164B1A68154B90
:1006400019684FF6FF73994238BF0B46D21A114B07
:100650001A600E4B1B681846012101F0A3F913E044
:100660000A4B1B681846002101F09CF9074B1A68D9
:10067000074B1B681046194601F004FA064B1B682D
:100680001846002101F02CFA80BD00BF14000020A4
:1006900020000020040000207C000020BC0000207E
:1006A00080B500AFFFF780FF80BD00BF80B500AF11
:1006B000FFF77AFF80BD00BF80B500AF0C48022174
:1006C00001F02EFA0346002B11D00A4B1B68022BB7
:1006D00006D101F00FFA03460420194600F00CF889
:1006E00001F008FA03460248194601F00BFA80BDF2
:1006F000003C00400C00002080B485B000AF786062
:100700000B467B800023FB60074BFB60FA687B682D
:1007100013440833FB60FB687A881A601437BD46BF
:100720005DF8047B704700BF0074004080B582B064
:1007300000AF104B7B60104B3B6007E03B681A1D1D
:100740003A607A68111D796012681A603A680B4B3A
:100750009A42F3D30A480B494FF000028842B8BFCF
:1007600040F8042BFFF6FAAF00F0CCF90837BD468D
:1007700080BD00BFE42300080000002048000020E6
:10078000480000202401002080B400AFFEE700BF35
:1007900080B485B000AF7860074B1B68FB6000BF7A
:1007A000054B1A68FB68D21A7B689A42F8D3143753
:1007B000BD465DF8047B70475000002080B487B0D0
:1007C00000AF7860396000237B613B68013B3B618F
:1007D00018E07B697A6813441B78FB607B697A6850
:1007E00013443A6979680A4412781A703B697A6846
:1007F0001344FA68D2B21A707B6901337B613B699A
:10080000013B3B617A693B699A42E2DB1C37BD469A
:100810005DF8047B704700BF80B586B000AFF8601C
:10082000B9607A6000237B611CE07B695A1C7A61A5
:10083000BA68D018F9681A4B83FB01239A10CB17BA
:10084000D21A13469B0013445B00CA1AD3B230334A
:10085000DBB20370FB68124A82FB03129210DB17B3
:10086000D31AFB60FB68002BDFD106E07B695A1CC2
:100870007A61BA68134430221A707A697B689A42A6
:10088000F4DBB8687969FFF799FF7B69BA681344AC
:1008900000221A707B6918461837BD4680BD00BF1C
:1008A0006766666680B584B000AF786039603B6883
:1008B000002B01D1012320E03B68012B01D17B6893
:1008C0001BE03B685B08FB60FB6878681946FFF734
:1008D000E9FFB860FA68FB6813441A463B689A421D
:1008E00004D1BB68BA6802FB03F306E0BB68BA68D0
:1008F00002FB03F37A6802FB03F318461037BD4688
:1009000080BD00BF80B588B000AFF860B9607A6084
:10091000F86801F0F1FC0346FB61F86901F0D2FAD6
:100920000346F868194601F017FA0346BB61F869F7
:10093000B9680022FFF770FF78617B68002B20D038
:100940007B69BA6813442E221A7078680A21FFF76F
:10095000A9FF0346184601F0B5FA0346B8691946DF
:1009600001F004FB0346BB61B86901F0C5FC024617
:100970007B690133B9680B44104619467A68FFF762
:100980004BFF2037BD4680BD80B584B000AF786096
:100990000B46FB700023FB607B68002B01DC082307
:1009A000FB607B68002B04DD7B68022B01DC0723E6
:1009B000FB607B68022B04DD7B68042B01DC0623D3
:1009C000FB607B68042B04DD7B68062B01DC0523C0
:1009D000FB607B68062B04DD7B68082B01DC0423AD
:1009E000FB607B68082B04DD7B680A2B01DC03239A
:1009F000FB607B680A2B04DD7B680C2B01DC022387
:100A0000FB607B680C2B04DD7B680E2B01DC012373
:100A1000FB607B680E2B01DD0023FB600023BB60C5
:100A2000FB78002B02D0012B22D049E00023BB60D1
:100A300009E0BB68DBB218460121234AFFF744FDF9
:100A4000BB680133BB60BA68FB689A42F1DBFB68A4
:100A5000BB6009E0BB68DBB2184601211B4AFFF707
:100A600033FDBB680133BB60BB68072BF2DD27E0B9
:100A70000023BB600CE0BB68DBB2C3F10F03DBB249
:100A800018460121124AFFF71FFDBB680133BB6006
:100A9000BA68FB689A42EEDBFB68BB600CE0BB689F
:100AA000DBB2C3F10F03DBB218460121074AFFF79F
:100AB0000BFDBB680133BB60BB68072BEFDD00BFDC
:100AC0001037BD4680BD00BF482300084C230008F6
:100AD0005023000880B582B000AF0120012100F052
:100AE000C3FB00233B710023FB7101233B603B46AA
:100AF0000348194600F098FD0837BD4680BD00BF89
:100B00000000024080B586B002AFFFF7E3FF00F0BF
:100B10004DFE10200221FFF765FBFFF71FFC0520AB
:100B200000214C4AFFF7D0FC4FF42F70FFF730FE46
:100B3000FFF714FC4FF42F73FB604FF00003BB6012
:100B400000237B604FF400430093434843494FF434
:100B50008042424B00F0D4FB4FF4004300934048E6
:100B600040494FF480423F4B00F0CAFB3E4B01220C
:100B70001A60002000213D4AFFF7A6FC10E039482A
:100B8000012100F0DFFD0346012B03D10A200121E2
:100B900000F0C6FAFB68013BFB600120FFF7F8FD9F
:100BA000FB68002BEBD12F48012100F0E5FDFFF79A
:100BB000D5FB4FF42F73FB602B4B02221A600020F1
:100BC00000212B4AFFF780FC0FE02648012100F0AE
:100BD000B9FD0346012B02D1962000F0CDF9FB6848
:100BE000013BFB600120FFF7D3FDFB68002BECD13C
:100BF0001C48012100F0C0FD4FF42F73FB60FFF78C
:100C0000ADFB4FF42F73FB60174B03221A600020DB
:100C10000021184AFFF758FC0EE01248012100F0AD
:100C200091FD0346012B01D100F026F8FB68013B42
:100C3000FB600120FFF7ACFDFB68002BEDD10948FC
:100C4000012100F099FD4FF42F73FB60FFF786FB45
:100C50008CE700BF54230008F80000200008024081
:100C60000C01002000000240480000205C23000826
:100C7000742300088023000880B58CB000AF4FF0CB
:100C80000003FB624FF00003BB624FF000037B6286
:100C90004FF47A733B620023FB610023BB61FFF7D3
:100CA0005DFB00200021A84AFFF70EFC4FF4FA700C
:100CB000FFF76EFDFFF75CFB00200021A34AFFF762
:100CC00003FC4FF42F70FFF763FDFFF747FB002095
:100CD00000219F4AFFF7F8FB41E00023FB614FF042
:100CE0000003FB620FE09B4800F054FB0346F86AE8
:100CF000194601F033F80346FB620220FFF748FD76
:100D0000FB690133FB61FB69092BECDDF86A924951
:100D100001F0E0F90346FB623B1DF86A1946002228
:100D2000FFF7F0FD3B1D022000211A46FFF7CCFB28
:100D30000FE08A48012100F005FD0346012B02D196
:100D40000123BB6108E03B6A013B3B620120FFF7E6
:100D50001FFD3B6A002BECD14FF47A733B62BB69F9
:100D6000002BBAD00023BB614FF47A733B6205209D
:100D700000217B4AFFF7A8FB41E00023FB614FF015
:100D80000003BB620FE0734800F004FB0346B86A3F
:100D9000194600F0E3FF0346BB620A20FFF7F8FCA8
:100DA000FB690133FB61FB69092BECDDB86A6A4919
:100DB00001F090F90346BB623B1DB86A1946002258
:100DC000FFF7A0FD3B1D072000211A46FFF77CFB23
:100DD0000FE06248012100F0B5FC0346012B02D16F
:100DE0000123BB6108E03B6A013B3B620120FFF746
:100DF000CFFC3B6A002BECD14FF47A733B62BB69AA
:100E0000002BBAD00023BB614FF47A733B62F86ABF
:100E1000B96A01F0ABF803461846524901F05AF995
:100E200003461A463B1D104619460222FFF76AFD8B
:100E30000A2000214C4AFFF747FB3B1D0C200021F4
:100E40001A46FFF741FB00200121484AFFF73CFB0F
:100E500041E00023FB614FF000037B620FE03D485F
:100E600000F098FA0346786A194600F077FF0346C7
:100E70007B620A20FFF78CFCFB690133FB61FB6995
:100E8000092BECDD786A344901F024F903467B62D2
:100E90003B1D786A19460022FFF734FD3B1D0220F6
:100EA00001211A46FFF710FB0FE02C48012100F04A
:100EB00049FC0346012B02D10123BB6108E03B6AD8
:100EC000013B3B620120FFF763FC3B6A002BECD146
:100ED0004FF47A733B62BB69002BBAD00023BB612D
:100EE0004FF47A733B62F86AB96A01F03FF803463F
:100EF0001846796A01F03AF8034618461C4901F091
:100F0000E9F803461A463B1D104619460222FFF730
:100F1000F9FC07200121174AFFF7D6FA3B1D0920EB
:100F200001211A46FFF7D0FAC820FFF731FC0B4821
:100F3000012100F007FC0346012B00D100E0F6E799
:100F40003037BD4680BD00BF94230008A0230008B1
:100F5000B4230008F80000200000204100000240F7
:100F6000B823000800401C46BC230008C02300082A
:100F700000247449C423000890B58DB000AF786098
:100F8000FFF7ECF94FF00003FB62052000215E4AF9
:100F9000FFF79AFA4FF4FA70FFF7FAFB0023BB62EF
:100FA000786800F08FFF03467B6200233B62FFF707
:100FB000D5F900233B624FF00003FB620FE053487A
:100FC00000F0E8F90346F86A194600F0C7FE034648
:100FD000FB620220FFF7DCFB3B6A01333B623B6AAA
:100FE000092BECDDF86A4A4901F074F80346FB620C
:100FF00000200021474AFFF767FA00200121464AF6
:10100000FFF762FA786800F05DFF0346012214469C
:101010001846F96A01F048F90346002B01D1002374
:101020001C46E3B283F00103DBB2002B04D0F86A64
:1010300001F062F903467B6000233B624FF000033E
:10104000FB620FE0314800F0A5F90346F86A194643
:1010500000F084FE0346FB620220FFF799FB3B6A27
:1010600001333B623B6A132BECDDF86A2B4901F03C
:1010700031F80346FB62786800F024FF0346012242
:1010800014461846F96A01F00FF90346002B01D106
:1010900000231C46E3B283F00103DBB2002B2AD00D
:1010A000F86A796A00F058FE0346184601F024F900
:1010B0000346002BB8BF5B420A2B21DDBB6A01331C
:1010C000BB62FB6A7B62B86A00F0FCFE024607F175
:1010D0000C03104619460022FFF714FC00200021E3
:1010E0000C4AFFF7F1F907F10C03002001211A4621
:1010F000FFF7EAF904E0786800F0E4FE03467B625B
:101100005020FFF745FB97E7C8230008F8000020B0
:1011100000002041D4230008E02300080000A04183
:1011200080B590B000AF78603960002387F8333025
:10113000012387F832304FF00003FB634FF00003C8
:10114000BB634FF000037B634FF000037B634FF002
:101150000003FB634FF00003BB6320E03F4800F057
:1011600019F90346F86B194600F0F8FD0346FB63D6
:101170001E20FFF70DFB3A4800F00CF90346B86B50
:10118000194600F0EBFD0346BB631E20FFF700FB92
:10119000786B4FF07E5100F0E1FD03467B63786889
:1011A00000F090FE03461846796B01F09BF8034669
:1011B000002BD3D1786800F085FE0346F86B194602
:1011C00000F088FF0346FB63786800F07BFE03466F
:1011D000B86B194600F07EFF0346BB6307F10803B6
:1011E000B86B19463A68FFF78DFB07F11C03F86BE3
:1011F00019463A68FFF786FBFFF7B0F807F11C03C2
:10120000022000211A46FFF75FF907F108030A20C0
:1012100000211A46FFF758F9F86B124900F05AFFFF
:101220000346184601F068F8024697F83330104636
:101230001946FFF7A9FBB86B0A4900F04BFF0346BC
:10124000184601F059F8024697F832301046194610
:10125000FFF79AFBC820FFF79BFA75E7F80000201C
:101260000C0100200000204180B483B000AF786002
:101270000B46FB70FB78002B06D0094B084A116B1C
:101280007A680A431A6306E0054B054A116B7A68CF
:10129000D2430A401A630C37BD465DF8047B7047A1
:1012A0000038024080B485B000AF7860104B1A68F7
:1012B0007B6802FB03F3FB600E4B1A680E4B9A42ED
:1012C00004D00C4B1A680D4B9A4205D1084B1B6891
:1012D000FA68D31AFB60FFE700BFFB685A1EFA608A
:1012E000002BFAD11437BD465DF8047B704700BF70
:1012F00020010020340000200095BA0A00E1F50525
:1013000080B586B002AFF860B9603B601346FB80E1
:1013100000F064F9FB68BA685A60FB68FA881A81C1
:10132000FB683A68DA60FB683A8B1A82FB68DA6815
:10133000FB681B8A02210091012101911046194688
:101340000122002300F008FCFB685A68FB681B8937
:10135000022100910121019110461946002200232B
:1013600000F0FAFBFB68DB68FA68128A5A83F868B7
:1013700000F010F8034618464FF0000100F0A8FFF7
:101380000346002B01D0012300E00023184610374C
:10139000BD4680BD80B584B000AF78607B68DB68F7
:1013A0007A68128A5A830220FFF77CFF7B68DB6829
:1013B0007A68128A1A830A20FFF774FF7B68DB6859
:1013C0007A68128A5A83224BBB6006E0BB685A1EB9
:1013D000BA60002B01D11F4B36E07B685B681A694D
:1013E0007B681B891340002BF0D00023FB6005E0D5
:1013F000FB680133FB600120FFF754FF7B685B68EB
:101400001A697B681B891340002BF1D1F86800F042
:1014100055FD03461846104900F0A8FD034618463E
:101420000E4900F057FE034618464FF0804100F089
:1014300051FE034618460A4900F098FD03461A4635
:101440007B681A607B681B6818461037BD4680BDF4
:1014500040420F00000080BF0000084200007A44B4
:101460000000904080B483B000AF03463960FB7148
:1014700097F90730002B0BDA0D49FB7903F00F03C6
:10148000043B3A68D2B21201D2B20B441A7609E098
:10149000084997F907303A68D2B21201D2B20B4428
:1014A00083F800230C37BD465DF8047B704700BF0E
:1014B00000ED00E000E100E080B582B000AF7860B0
:1014C0007B68B3F1807F01D3012311E00A4B7A6876
:1014D00022F07F42013A5A604FF0FF300F21FFF7B0
:1014E000C1FF054B00229A60034B07221A600023BC
:1014F00018460837BD4680BD10E000E080B582B0D8
:1015000000AF334B1B685A1C314B1A60314B1B68C0
:10151000002B04D02F4B1B685A1E2E4B1A60AFF3C2
:1015200000800023FB714BE0FB792B4A9B001344A6
:101530005B68002B41D0FB79274A9B0013445B6812
:101540001B7B002B39D0FB79234A9B0013445B683B
:101550009B68002B31D0FB791F4A9B0013445B68CA
:101560009A68013A9A60FB791B4A9B0013445B68B6
:101570009B68002B21D1FB79174A9B0013445B68C1
:101580001B699847FB79144A9B0013445A68FB79FE
:1015900011499B000B445B681B689360FB790E4A02
:1015A0009B0013445B685B68002B06D1FB790A4AF9
:1015B0009B0013445B6800221A73FB790133FB71B3
:1015C000054B1B78FA799A42AED30837BD4680BDE9
:1015D00050000020540000205C00002080B500AFC7
:1015E0000C4B1A680C4BA3FB02139B091846FFF720
:1015F00063FF0346002B00D0FEE7064B1B689A09E9
:10160000064BA3FB02139A0A054B1A60054B0122F5
:101610001A7080BD34000020D34D6210179165020E
:10162000200100205800002080B487B000AF78600F
:10163000396000237B6100233B610023FB600023B2
:101640007B6176E07B69012202FA03F33B613B6830
:101650001A683B691340FB60FA683B699A4265D19E
:101660007B681A687B695B00032101FA03F3DB43A3
:101670001A407B681A607B681A683B681B791946B8
:101680007B695B0001FA03F31A437B681A603B68CD
:101690001B79012B03D03B681B79022B2ED17B6871
:1016A0009A687B695B00032101FA03F3DB431A406C
:1016B0007B689A607B689A683B685B7919467B69AE
:1016C0005B0001FA03F31A437B689A607B685A68EF
:1016D0007B699BB2012101FA03F3DB431A407B686B
:1016E0005A607B685A683B689B7919467B699BB254
:1016F00001FA03F39BB21A437B685A607B68DA688D
:101700007B699BB25B00032101FA03F3DB431A40C0
:101710007B68DA607B68DA683B68DB7919467B694D
:101720005B0001FA03F31A437B68DA607B690133DB
:101730007B617B690F2B85D91C37BD465DF8047B27
:10174000704700BF80B485B000AF78600B467B80E7
:101750000023FB737B681A697B881340002B02D03F
:101760000123FB7301E00023FB73FB7B1846143756
:10177000BD465DF8047B704780B485B000AF7860EB
:101780000B467B800023FB737B685A697B88134080
:10179000002B02D00123FB7301E00023FB73FB7BD2
:1017A00018461437BD465DF8047B704780B500AF1E
:1017B000114B114A126842F001021A600E4B0022CE
:1017C0009A600D4A0C4B1B6823F0847323F480331A
:1017D0001360094B094A5A60074B074A126822F402
:1017E00080221A60044B0022DA6000F00BF8044BF0
:1017F0004FF000629A6080BD003802401030002433
:1018000000ED00E080B483B000AF00237B600023D4
:101810003B60354B344A126842F480321A60324BD6
:101820001B6803F400333B607B6801337B603B68DB
:10183000002B03D17B68B3F5A06FF0D12A4B1B6856
:1018400003F40033002B02D001233B6001E00023AE
:101850003B603B68012B42D1234B234A126C42F080
:1018600080521A64214B214A126842F480421A6065
:101870001D4B1D4A92689A601B4B1B4A926842F4AA
:1018800000429A60184B184A926842F4A0529A603B
:10189000154B174A5A60144B134A126842F0807273
:1018A0001A6000BF104B1B6803F00073002BF9D0C7
:1018B000104B40F205621A600B4B0B4A926822F003
:1018C00003029A60084B084A926842F002029A604A
:1018D00000BF054B9B6803F00C03082BF9D10C37B4
:1018E000BD465DF8047B7047003802400070004040
:1018F00019544007003C024080B485B000AF7860C6
:1019000039600023FB607B681B68FB60FA68244B2E
:101910001340FB603B681A683B68DB681A433B680E
:101920005B691A433B689B691A433B68DB691A434E
:101930003B681B6A1A433B685B6A1A433B689B6AB5
:101940001A433B685B6B1A433B689B6B1343FA6813
:101950001343FB607B68FA681A607B685B69FB6015
:10196000FB6823F00703FB603B68DA6A3B681B6B8C
:101970001343FA681343FB607B68FA685A613B685B
:101980001A697B685A603B685A687B689A603B6852
:101990009A687B68DA601437BD465DF8047B70474F
:1019A0003F801CF080B483B000AF78600B46FB70C2
:1019B000FB78002B06D07B681B6843F001027B6834
:1019C0001A6005E07B681B6823F001027B681A60DF
:1019D0000C37BD465DF8047B704700BF80B485B00E
:1019E00000AF78600023FB737B681B6803F0010382
:1019F000002B02D00123FB7301E00023FB73FB7B70
:101A000018461437BD465DF8047B704780B487B034
:101A100000AF786039600023FB750023FB607A68B3
:101A2000154B9A4202D8154B3B6101E0144B3B61C8
:101A30003B6803F00053002B03D03B695B68FB60FD
:101A400002E03B691B68FB60FB6823F0F02323F096
:101A50008213FB60FA683B681340002B02D001231D
:101A6000FB7501E00023FB75FB7D18461C37BD4666
:101A70005DF8047B704700BF0F64024000600240C5
:101A80000064024080B485B000AF786039607A6845
:101A9000104B9A4202D8104BFB6001E00F4BFB60E9
:101AA0003B6803F00053002B07D03B6823F0F02382
:101AB00023F08213FA68D36006E03B6823F0F0233A
:101AC00023F08213FA6893601437BD465DF8047BF7
:101AD000704700BF0F640240006002400064024093
:101AE00080B483B000AF786039600C37BD465DF8D4
:101AF000047B704780B400AF00231846BD465DF8F4
:101B0000047B704780B483B000AF78600B467B8065
:101B10007B687A889A810C37BD465DF8047B7047F4
:101B200080B485B000AF78600B467B800023FB73E8
:101B30007B681B899AB27B8813409BB2002B02D032
:101B40000123FB7301E00023FB73FB7B1846143772
:101B5000BD465DF8047B704780B584B002AF786005
:101B600079807A703B707B88002B00D10CE078681C
:101B700000F00EF879887A783B78387C0090387DD0
:101B80000190786800F07CF80837BD4680BD00BF42
:101B900080B483B000AF78607A682F4B9A4205D149
:101BA0002E4B2E4A126B42F001021A637A682C4BBC
:101BB0009A4205D1294B294A126B42F002021A635C
:101BC0007A68284B9A4205D1244B244A126B42F082
:101BD00004021A637A68244B9A4205D11F4B1F4AAC
:101BE000126B42F008021A637A68204B9A4205D1C0
:101BF0001A4B1A4A126B42F010021A637A681C4B95
:101C00009A4205D1154B154A126B42F020021A6315
:101C10007A68184B9A4205D1104B104A126B42F069
:101C200040021A637A68144B9A4205D10B4B0B4A57
:101C3000126B42F080021A637A68104B9A4205D107
:101C4000064B064A126B42F480721A630C37BD468B
:101C50005DF8047B704700BF00000240003802407E
:101C60000004024000080240000C02400010024044
:101C70000014024000180240001C024000200240F4
:101C800080B485B000AF786079807A703B700023B3
:101C9000FB7355E07A88FB7B42FA03F303F0010300
:101CA000002B00D149E07B681A68FB7B5B000321B5
:101CB00001FA03F3DB431A407978FB7B5B0001FAFE
:101CC00003F31A437B681A607B78012B02D07B7880
:101CD000022B21D17B685A68FB7B012101FA03F3B7
:101CE0009BB2DB431A403978FB7B01FA03F39BB2CA
:101CF0001A437B685A607B689A68FB7B5B00032110
:101D000001FA03F3DB431A40397FFB7B5B0001FAE6
:101D100003F31A437B689A607B68DA68FB7B5B009D
:101D2000032101FA03F3DB431A40397EFB7B5B009E
:101D300001FA03F31A437B68DA60FB7B0133FB7320
:101D4000FB7B0F2BA6D91437BD465DF8047B70478B
:101D500080F0004002E000BF81F0004142001FBF60
:101D60005FEA410392EA030F7FEA226C7FEA236C69
:101D70006AD04FEA1262D2EB1363C1BFD21841405E
:101D800048404140B8BF5B42192B88BF704710F0F4
:101D9000004F40F4000020F07F4018BF404211F097
:101DA000004F41F4000121F07F4118BF494292EAFF
:101DB000030F3FD0A2F1010241FA03FC10EB0C002B
:101DC000C3F1200301FA03F100F0004302D54942B8
:101DD00060EB4000B0F5000F13D3B0F1807F06D365
:101DE00040084FEA310102F10102FE2A51D2B1F15D
:101DF000004F40EBC25008BF20F0010040EA030052
:101E00007047490040EB000010F4000FA2F10102FE
:101E1000EDD1B0FA80FCACF1080CB2EB0C0200FA88
:101E20000CF0AABF00EBC25052421843BCBFD040D6
:101E30001843704792F0000F81F4000106BF80F450
:101E400000000132013BB5E74FEA41037FEA226C13
:101E500018BF7FEA236C21D092EA030F04D092F0DE
:101E6000000F08BF0846704790EA010F1CBF002012
:101E7000704712F07F4F04D1400028BF40F000406F
:101E8000704712F100723CBF00F50000704700F08F
:101E9000004343F0FE4040F4000070477FEA2262B6
:101EA00016BF08467FEA23630146420206BF5FEA87
:101EB000412390EA010F40F4800070474FF0000387
:101EC00004E000BF10F0004348BF40425FEA000C4E
:101ED00008BF704743F0964301464FF000001CE0F6
:101EE00050EA010208BF70474FF000030AE000BF4C
:101EF00050EA010208BF704711F0004302D540428A
:101F000061EB41015FEA010C02BF844601460020FB
:101F100043F0B64308BFA3F18053A3F50003BCFA16
:101F20008CF2083AA3EBC25310DB01FA02FC6344C3
:101F300000FA02FCC2F12002BCF1004F20FA02F2CA
:101F400043EB020008BF20F00100704702F12002BD
:101F500001FA02FCC2F1200250EA4C0021FA02F21E
:101F600043EB020008BF20EADC7070474FF0FF0C23
:101F70001CEAD0521EBF1CEAD15392EA0C0F93EA1E
:101F80000C0F6FD01A4480EA010C400218BF5FEAC0
:101F900041211ED04FF0006343EA501043EA511133
:101FA000A0FB01310CF00040B1F5000F3EBF49002D
:101FB00041EAD3715B0040EA010062F17F02FD2A31
:101FC0001DD8B3F1004F40EBC25008BF20F0010014
:101FD000704790F0000F0CF0004C08BF49024CEA2B
:101FE000502040EA51207F3AC2BFD2F1FF0340EABD
:101FF000C250704740F400004FF00003013A5DDC2E
:1020000012F1190FDCBF00F000407047C2F100026E
:10201000410021FA02F1C2F1200200FA02FC5FEA5B
:10202000310040F1000053EA4C0308BF20EADC70A5
:10203000704792F0000F00F0004C02BF400010F417
:10204000000F013AF9D040EA0C0093F0000F01F0C4
:10205000004C02BF490011F4000F013BF9D041EAE6
:102060000C018FE70CEAD15392EA0C0F18BF93EAE8
:102070000C0F0AD030F0004C18BF31F0004CD8D112
:1020800080EA010000F00040704790F0000F17BF99
:1020900090F0004F084691F0000F91F0004F14D0DF
:1020A00092EA0C0F01D142020FD193EA0C0F03D137
:1020B0004B0218BF084608D180EA010000F000403A
:1020C00040F0FE4040F40000704740F0FE4040F415
:1020D000400070474FF0FF0C1CEAD0521EBF1CEAB4
:1020E000D15392EA0C0F93EA0C0F69D0A2EB0302D2
:1020F00080EA010C49024FEA402037D04FF080536C
:1021000043EA111143EA10130CF000408B4238BF30
:102110005B0042F17D024FF4000C8B4224BF5B1A3E
:1021200040EA0C00B3EB510F24BFA3EB510340EA8C
:102130005C00B3EB910F24BFA3EB910340EA9C003A
:10214000B3EBD10F24BFA3EBD10340EADC001B01AA
:1021500018BF5FEA1C1CE0D1FD2A3FF650AF8B424E
:1021600040EBC25008BF20F0010070470CF0004C5B
:102170004CEA50207F32C2BFD2F1FF0340EAC25086
:10218000704740F400004FF00003013A37E792F047
:10219000000F00F0004C02BF400010F4000F013AA5
:1021A000F9D040EA0C0093F0000F01F0004C02BFA0
:1021B000490011F4000F013BF9D041EA0C0195E709
:1021C0000CEAD15392EA0C0F08D142027FF47DAFA2
:1021D00093EA0C0F7FF470AF084676E793EA0C0F92
:1021E00004D14B023FF44CAF08466EE730F0004C90
:1021F00018BF31F0004CCAD130F000427FF45CAF20
:1022000031F000437FF43CAF5FE700BF4FF0FF3C8D
:1022100006E000BF4FF0010C02E000BF4FF0010CE0
:102220004DF804CD4FEA40024FEA41037FEA226CA9
:1022300018BF7FEA236C11D001B052EA530C18BFCB
:1022400090EA010F58BFB2EB030088BFC81738BF30
:102250006FEAE17018BF40F0010070477FEA226C1E
:1022600002D15FEA402C05D17FEA236CE4D15FEA1A
:10227000412CE1D05DF8040B704700BF844608464E
:102280006146FFE70FB5FFF7C9FF002848BF10F10F
:10229000000F0FBD4DF808EDFFF7F4FF0CBF012054
:1022A00000205DF808FB00BF4DF808EDFFF7EAFFDE
:1022B00034BF012000205DF808FB00BF4DF808ED99
:1022C000FFF7E0FF94BF012000205DF808FB00BF8E
:1022D0004DF808EDFFF7D2FF94BF012000205DF814
:1022E00008FB00BF4DF808EDFFF7C8FF34BF012021
:1022F00000205DF808FB00BF4FEA4002B2F1FE4F3C
:102300000FD34FF09E03B3EB12620DD94FEA0023B7
:1023100043F0004310F0004F23FA02F018BF404290
:1023200070474FF00000704712F1610F01D1420277
:1023300005D110F0004008BF6FF0004070474FF02B
:1023400000007047004014543E00000020000000D0
:102350003C000000574954414D210000312E205AC5
:102360006D6965727A206F646C65676C6F73632E3C
:1023700000000000322E205A6C69637A2E000000A3
:10238000332E20506F6C69637A206B7562617475AF
:1023900072652E004B756261747572612E000000CB
:1023A00050727A796C6F7A206920776369736E69ED
:1023B0006A3A0000583D0000593D0000503D0000C1
:1023C0005A3D0000563D0000636F756E74657221C2
:1023D000000000004C69637A6E696B3A00000000EF
:0423E00030000000C9
:1023E400FFFF0000FFFF000000C01200010000001A
:1023F40000002000B86002400C3C00402F000000A8
:1024040000000028000000240000402000000022FA
:1024140000000021007A030A000000000000000010
:08242400010203040607080988
:0400000508000000EF
:00000001FF
